:1000000080315B288B1308007E1480318B1D0928FA
:100010000A2820280B1C0D280E2820282700931EB4
:10002000122813281F28931221005B08DA005B08AE
:1000300003191B281D2801301E280030DB000B107F
:100040002000901F242825284E28901321005908AD
:1000500003192B282D2801302E280030D9005908EB
:100060000319332834283D282000970196012100E8
:10007000D801D40122000E164E28D401D40A200043
:1000800017082100D600200016082100D500200006
:10009000181021005808D70022000E122000101C52
:1000A00052285328592810100130F0007008210000
:1000B000D8077E10090080315D2801308400883027
:1000C0008500DE308600003087000B3096314D26EB
:1000D0008031FC01CC308400003085001230963134
:1000E000472680317E1020008A31C42A2100C600B4
:1000F0003308F4003208F3003108F2003008F10050
:100100004230F800C730F700FA30F600E130F50071
:1001100089318E218031031C8E288F289D2837300D
:100120002100BC009830BD003D08F8003C08F700F5
:10013000460888310C2080315A2B210033082000DA
:10014000DB00210032082000DA0021003108200005
:10015000D900210030082000D8004130D7002030DD
:10016000D6000030D5000030D4008C314E248031D0
:10017000200057082100AB00200056082100AA00EB
:10018000200055082100A900200054082100A800E3
:100190008831A220803121002808C5004508303E62
:1001A000F40046089731BE27803121003308200033
:1001B000DB00210032082000DA0021003108200095
:1001C000D900210030082000D8004130D70020306D
:1001D000D6000030D5000030D4008C314E24803160
:1001E000200057082100A700200056082100A60083
:1001F000200055082100A500200054082100A4007B
:100200004508B400B501B601B7013708F400360857
:10021000F3003508F2003408F10001308A31192268
:10022000803174082100A3007308A2007208A100A5
:100230007108A00097315227803121002308200047
:10024000C100210022082000C00021002108200058
:10025000BF00210020082000BE004130BD0020303A
:10026000BC000030BB000030BA0083315B2380311A
:1002700020003D082100AB0020003C082100AA001E
:1002800020003B082100A90020003A082100A80016
:100290008831A220803121002808C4004408303E63
:1002A000F40046089731BE2780312C30F40021003D
:1002B00046089731BE278031210033082000DB003B
:1002C000210032082000DA00210031082000D90086
:1002D000210030082000D8004130D7002030D6005F
:1002E0000030D5000030D4008C314E248031200005
:1002F00057082100A700200056082100A600200072
:1003000055082100A500200054082100A40045083C
:10031000B400B501B601B7013708F4003608F300A0
:100320003508F2003408F10001308A311922803199
:1003300074082100A3007308A2007208A1007108CC
:10034000A000973152278031210023082000C100EE
:10035000210022082000C000210021082000BF0049
:10036000210020082000BE004130BD002030BC002C
:100370000030BB000030BA0083315B2380312000A5
:100380003D082100C20020003C082100C1002000DF
:100390003B082100C00020003A082100BF004208AD
:1003A000A7004108A6004008A5003F08A400440893
:1003B000B400B501B601B7013708F4003608F30000
:1003C0003508F2003408F10001308A3119228031F9
:1003D00074082100A3007308A2007208A10071082C
:1003E000A000973152278031210023082000C1004E
:1003F000210022082000C000210021082000BF00A9
:10040000210020082000BE004130BD002030BC008B
:100410000030BB000030BA0083315B238031200004
:100420003D082100AB0020003C082100AA0020006C
:100430003B082100A90020003A082100A8008831CB
:10044000A220803121002808C3004308303EF40078
:1004500046089731BE278031210033082000DB0099
:10046000210032082000DA00210031082000D900E4
:10047000210030082000D8004130D7002030D600BD
:100480000030D5000030D4008C314E248031200063
:1004900057082100A700200056082100A6002000D0
:1004A00055082100A500200054082100A40045089B
:1004B000B400B501B601B7013708F4003608F300FF
:1004C0003508F2003408F10001308A3119228031F8
:1004D00074082100A3007308A2007208A10071082B
:1004E000A000973152278031210023082000C1004D
:1004F000210022082000C000210021082000BF00A8
:10050000210020082000BE004130BD002030BC008A
:100510000030BB000030BA0083315B238031200003
:100520003D082100C20020003C082100C10020003D
:100530003B082100C00020003A082100BF0042080B
:10054000A7004108A6004008A5003F08A4004408F1
:10055000B400B501B601B7013708F4003608F3005E
:100560003508F2003408F10001308A311922803157
:1005700074082100A3007308A2007208A10071088A
:10058000A000973152278031210023082000C100AC
:10059000210022082000C000210021082000BF0007
:1005A000210020082000BE004130BD002030BC00EA
:1005B0000030BB000030BA0083315B238031200063
:1005C0003D082100BB0020003C082100BA002000AB
:1005D0003B082100B90020003A082100B8003B0880
:1005E000A7003A08A6003908A5003808A400430867
:1005F000B400B501B601B7013708F4003608F300BE
:100600003508F2003408F10001308A3119228031B6
:1006100074082100A3007308A2007208A1007108E9
:10062000A000973152278031210023082000C1000B
:10063000210022082000C000210021082000BF0066
:10064000210020082000BE004130BD002030BC0049
:100650000030BB000030BA0083315B2380312000C2
:100660003D082100AB0020003C082100AA0020002A
:100670003B082100A90020003A082100A800883189
:10068000A220803121002808BE003E08303EF40040
:1006900046089731BE2780314830F40021004608D3
:1006A0009731BE2780317A30F40021004608973117
:1006B000BE278031080020003D088039C7003D3545
:1006C000CD00BC1F642B652B662B4D144D08031900
:1006D0006A2B6B2B7A2B4D0A031D6F2B702B782BFB
:1006E0000030BD000030BC000030BB000030BA005C
:1006F000BC17822B0030BD000030BC000030BB00B6
:100700000030BA0041088039C2004208C7064135AE
:10071000CC00C01F8C2B8D2B8E2B4C144C08031936
:10072000922B932BA22B4C0A031D972B982BA02BBB
:100730000030C1000030C0000030BF000030BE00FB
:10074000C017AA2B0030C1000030C0000030BF002D
:100750000030BE004C080319AE2BAF2BB42B4D0854
:10076000031DB32BB42BBD2B0030BD000030BC00EB
:100770000030BB000030BA00952D3A08F100400867
:1007800096319026833172082000D3007108D20080
:100790005208C200C301C401C5014508CB0044088A
:1007A000CA004308C9004208C8005308C200C30178
:1007B000C401C5014508D1004408D0004308CF005A
:1007C0004208CE003B08F1003F0896319026833165
:1007D00072082000D3007108D2005208C200C30181
:1007E000C401C5014208C8074308C93D4408CA3DC1
:1007F0004508CB3D5308C200C301C401C5014208EE
:10080000CE074308CF3D4408D03D4508D13D3C08C4
:10081000F1003E0896319026833172082000D30003
:100820007108D2005208C200C301C401C5014208C8
:10083000C8074308C93D4408CA3D4508CB3D530895
:10084000C200C301C401C5014208CE074308CF3D21
:100850004408D03D4508D13D0830C835C90DCA0D02
:10086000CB0D890B2D2C3B08F1003E0896319026CC
:10087000833172082000D3007108D2005208C807E3
:100880005308C93D0030CA3DCB3D3A08F1003F084E
:1008900096319026833172082000D3007108D2006F
:1008A0005208C8075308C93D0030CA3DCB3D083047
:1008B000C835C90DCA0DCB0D890B582C3A08F1006B
:1008C0003E0896319026833172082000D3007108CB
:1008D000D2005208C8075308C93D0030CA3DCB3D7D
:1008E0003B08F100400896319026833172082000C1
:1008F000D3007108D2005208CE075308CF3D003014
:10090000D03DD13D3C08F1003F089631902683311F
:1009100072082000D3007108D2005208CE07530895
:10092000CF3D0030D03DD13D3C08F100400896312C
:100930009026833172082000D3007108D20052083B
:10094000C2005308C300C401C5010830C235C30D3D
:10095000C40DC50D890BA62C4208CE074308CF3D18
:100960004408D03D4508D13D4808C2004908C300AD
:100970004A08C4004B08C5001830C536C40CC30C67
:10098000C20C890BBD2C4208CE074308CF3D44085A
:10099000D03D4508D13D0830C835C90DCA0DCB0D35
:1009A000890BCC2C4D084C07C200C301C30D420873
:1009B000823ED200FF30433DD300F52C0130CE35CE
:1009C000CF0DD00DD10D890BDF2CCB1FE82CE92CDE
:1009D000EA2C4E140130C835C90DCA0DCB0D890B58
:1009E000EB2CFF30D207FF30D33DD01FF82CF92C71
:1009F000DE2CCC01CB1FFD2CFE2C1A2DFF30480520
:100A0000C200FF304905C300FF304A05C4007F30F3
:100A10004B05C50045084404430442040319112D45
:100A2000122D152DCC01CC0A1A2D4E1C182D192D66
:100A30001A2D122D4C0803191E2D1F2D472D013084
:100A4000CE070030CF3D0030D03D0030D13D511CAD
:100A50002A2D2B2D472D4E08C2004F08C3005008E9
:100A6000C4005108C5000130C600C537C40CC30C12
:100A7000C20CC60B352D4508D1004408D0004308F0
:100A8000CF004208CE000130D2070030D33D5308DA
:100A9000803AC20080304202031D502DFF305202C6
:100AA000031C532D542D5E2D7F302000D10080304B
:100AB000D0000030CF000030CE00892D2000530838
:100AC000803AC20080304202031D682D013052027C
:100AD00003186B2D6C2D772D00302000D1000030D5
:100AE000D0000030CF000030CE00C701892D20009B
:100AF0005208CD00FF30CE05FF30CF057F30D00546
:100B00000030D1054D1C852D862D872DD0174D36F3
:100B1000D1004708C2004208D1045108BD00500866
:100B2000BC004F08BB004E08BA0008002100C400FA
:100B30003308AB003208AA003108A9003008A80029
:100B40008831A220853121002808C3004308303EA7
:100B5000F40044089731BE2785312C30F400210081
:100B600044089731BE27853121003308A700320899
:100B7000A6003108A5003008A4004308B400B50160
:100B8000B601B7013708F4003608F3003508F20063
:100B90003408F10001308A311922853174082100AE
:100BA000A3007308A2007208A1007108A000973189
:100BB00052278531210023082000C100210022088E
:100BC0002000C000210021082000BF0021002008D3
:100BD0002000BE004130BD002030BC000030BB0012
:100BE0000030BA0083315B23853120003D082100AD
:100BF000AB0020003C082100AA0020003B08210097
:100C0000A90020003A082100A8008831A2208531DF
:100C100021002808C2004208303EF4004408973101
:100C2000BE27853121003308A7003208A60031080D
:100C3000A5003008A4004308B400B501B601B7010F
:100C40003708F4003608F3003508F2003408F100E4
:100C500001308A311922853174082100A3007308FC
:100C6000A2007208A1007108A000973152278531B7
:100C7000210023082000C100210022082000C0001C
:100C8000210021082000BF00210020082000BE0014
:100C90004130BD002030BC000030BB000030BA0045
:100CA00083315B23853120003D082100C0002000F6
:100CB0003C082100BF0020003B082100BE002000AE
:100CC0003A082100BD004008A7003F08A6003E08E2
:100CD000A5003D08A4004208B400B501B601B70163
:100CE0003708F4003608F3003508F2003408F10044
:100CF00001308A311922853174082100A30073085C
:100D0000A2007208A1007108A00097315227853116
:100D1000210023082000C100210022082000C0007B
:100D2000210021082000BF00210020082000BE0073
:100D30004130BD002030BC000030BB000030BA00A4
:100D400083315B23853120003D082100AB0020006A
:100D50003C082100AA0020003B082100A900200037
:100D60003A082100A8008831A220853121002808F6
:100D7000C1004108303EF40044089731BE27853158
:100D800021003308A7003208A6003108A50030086A
:100D9000A4004308B400B501B601B7013708F40058
:100DA0003608F3003508F2003408F10001308A31CA
:100DB0001922853174082100A3007308A20072086B
:100DC000A1007108A0009731522785312100230826
:100DD0002000C100210022082000C00021002108BD
:100DE0002000BF00210020082000BE004130BD00CF
:100DF0002030BC000030BB000030BA0083315B23E0
:100E0000853120003D082100C00020003C08210061
:100E1000BF0020003B082100BE0020003A0821004E
:100E2000BD004008A7003F08A6003E08A5003D08F9
:100E3000A4004208B400B501B601B7013708F400B8
:100E40003608F3003508F2003408F10001308A3129
:100E50001922853174082100A3007308A2007208CA
:100E6000A1007108A0009731522785312100230885
:100E70002000C100210022082000C000210021081C
:100E80002000BF00210020082000BE004130BD002E
:100E90002030BC000030BB000030BA0083315B233F
:100EA000853120003D082100BB0020003C082100C6
:100EB000BA0020003B082100B90020003A082100B8
:100EC000B8003B08A7003A08A6003908A500380872
:100ED000A4004108B400B501B601B7013708F40019
:100EE0003608F3003508F2003408F10001308A3189
:100EF0001922853174082100A3007308A20072082A
:100F0000A1007108A00097315227853121002308E4
:100F10002000C100210022082000C000210021087B
:100F20002000BF00210020082000BE004130BD008D
:100F30002030BC000030BB000030BA0083315B239E
:100F4000853120003D082100AB0020003C08210035
:100F5000AA0020003B082100A90020003A08210037
:100F6000A8008831A220853121002808BC003C0857
:100F7000303EF40044089731BE2785315630F400E6
:100F8000210044089731BE27853108002000A200C7
:100F9000E92F7A08BF3EF7002208973101278731F1
:100FA000FC2F7A08933EF7002208973101278731FA
:100FB000FC2F7A08D33EF7002208973101278731AA
:100FC000FC2F7A087F3EF7002208973101278731EE
:100FD000FC2F7B08A000A1012108003A0319F12F82
:100FE000E12F2008023A0319C92F013A0319D12F22
:0E0FF000073A0319D92FE12F08008B170800CC
:10100200433498343F349834003498342534983437
:101012001334983408342000A000A1017C14422823
:101022007808FA007708F9002108790784007A081D
:1010320003187A0A85000008F039F4002008973175
:10104200282788317808FA007708F900200021085B
:10105200790784007A0803187A0A85000008FB00E1
:101062000330FB35FF3E031D32287B35F039F40097
:1010720020089731282788310130F90079082000AB
:10108200A1077808FA007708F90021087907840097
:101092007A0803187A0A85001200031D5128522883
:1010A200112808002000DC005C08FA00FA0DFA0D95
:1010B20021001D087A0683397A069D001D149D14AD
:1010C2009D186428652861281C082000DE00210084
:1010D2001B082000DD003B30BD008330BC00123015
:1010E200BB006F30BA005D08F1005E08F200890DA6
:1010F200893B8909F300F40001308A3119228831D1
:1011020074082000C1007308C0007208BF00710893
:10111200BE0083315B23883120003D08DB003C08A0
:10112200DA003B08D9003A08D80021001D1020003F
:101132005B08D7005A08D6005908D5005808D400D1
:101142000800031021002A0D2B0DFB007B08031D54
:10115200AB28AC28B5280030AB000030AA00003024
:10116200A9000030A80012292808AC002908AD0007
:101172002A08AE002B08AF001F30AF36AE0CAD0C04
:10118200AC0C890BBE282C08FA00AA17FF30A80560
:10119200FF30A905FF30AA050030AB059630FB02EF
:1011A200FB1FD428D528ED287B08803A973E0318E8
:1011B200DB28DC28DD28AC280130AB36AA0CA90CD0
:1011C200A80C890BDE280130AC002C08FB07031D9C
:1011D200EB28EC28DD28022920307B02031CF228B0
:1011E200F328FD28AC280130A835A90DAA0DAB0DB6
:1011F200890BF5280130FB027B08031D0129022916
:10120200F4287A080319062907291229A809A90925
:10121200AA09AB09A80A0319A90A0319AA0A0319F8
:10122200AB0A0800FB00F4017B08973128278931BB
:101232001A30FA00F830890B1C29FA0B1C290032EB
:101242000330F7007B089731012789310430FA0017
:101252003E30890B2A29FA0B2A290330F7007B0832
:101262009731012789310430FA003E30890B372942
:10127200FA0B37290330F7007B08973101278931B0
:101282000430FA003E30890B4429FA0B442902301B
:10129200F7007B089731012789310430FA003E308C
:1012A200890B5129FA0B51292830F7007B08973115
:1012B200012789312130FA007630890B5E29FA0B39
:1012C2005E2900320C30F7007B0897310127893103
:1012D2002130FA007630890B6C29FA0B6C29003226
:1012E200F701F70A7B089731012789312130FA008B
:1012F2007630890B7A29FA0B7A2900320630F70008
:101302007B089731012789312130FA007630890B29
:101312008829FA0B88290032080000307105200064
:10132200A00000307205A10080307305A2007F305A
:101332007405A3002308220421042004031DA2290A
:10134200A329AB290030F4000030F3000030F20092
:101352000030F10000307505A00000307605A100D4
:1013620080307705A2007F307805A300230822048D
:1013720021042004031DBE29BF29C7290030F8001B
:101382000030F7000030F6000030F500F41FCA29E3
:10139200CB29E3290030A0000030A1000030A200D8
:1013A2008030A3007108A0027208A13B7308A23B1F
:1013B2007408A33B2308F4002208F3002108F2007A
:1013C2002008F100F81FE629E729FF290030A000D4
:1013D2000030A1000030A2008030A3007508A002F6
:1013E2007608A13B7708A23B7808A33B2308F800C4
:1013F2002208F7002108F6002008F5008030F406E4
:101402008030F80678087402031D112A77087302E7
:10141200031D112A76087202031D112A7508710232
:101422000318142A152A172A0310182A031408006D
:101432002000A000200803191F2A202A342AF41FA2
:10144200232A242A342A7109A2007209A3007309EB
:10145200A4007409A500A20A0319A30A0319A40A85
:101462000319A50A3C2A7408A5007308A40072088F
:10147200A3007108A2007408730472047104031DAE
:10148200432A442A4D2A0030F4000030F300003091
:10149200F2000030F100C32A9630A1005B2A01302D
:1014A200F5007508A1070130A536A40CA30CA20C07
:1014B200890B552AFE302505031D602A612A502A10
:1014C200752A0130F5007508A1070130A207003026
:1014D200A33D0030A43D0030A53D0130A536A40C4B
:1014E200A30CA20C890B6F2AFF302505031D7A2A53
:1014F2007B2A622A852A0130A1020130A235A30D7E
:10150200A40DA50D890B7F2AA41B882A892A8F2A5C
:101512000230210203188E2A8F2A7C2A2118922A4D
:10152200932A9B2AFF30A205FF30A3057F30A40532
:10153200FF30A5050310A10C2108F500F601F70103
:10154200F8011830F535F60DF70DF80D890BA32AC1
:101552007508A2047608A3047708A4047808A504F1
:1015620020080319B52AB62ABB2AF41FB92ABA2AB7
:10157200BB2AA5172508F4002408F3002308F2006B
:101582002208F10008002100E901E90A21006903AB
:10159200031DCC2ACD2AE22A803102208A319631DB
:1015A200DA268A3196315B268A319631B3268A3120
:1015B2002030893113218A318731FD278A31210078
:1015C2000E12E90154080319E72AE82A812B55086B
:1015D200C700C8015608C900CA014908CA00C901A2
:1015E20047084907DC0048084A3DDD005708C700A4
:1015F200C801C901CA014A08F4004908F3004808B1
:10160200F2004708F1000030F8000030F700FF3028
:10161200F600FF30F500973188278A3174082100DF
:10162200D3007308D2007208D1007108D00036309E
:101632002000BD008630BC003730BB00BD30BA0090
:1016420021005308F4005208F3005108F200500838
:10165200F10000308A3119228A3174082000A90071
:101662007308A8007208A7007108A60021005C0890
:10167200F1005D08F200890D893B8909F300F4004D
:1016820001308A3119228A3174082000AD007308B2
:10169200AC007208AB007108AA008D31F8258A31BE
:1016A20020002908C1002808C0002708BF0026081A
:1016B200BE0083315B238A3120003D08D7003C08FD
:1016C200D6003B08D5003A08D4003F30DB0080301A
:1016D200DA000030D9000030D8008C314E248A3133
:1016E200200057082100CF00200056082100CE001C
:1016F200200055082100CD00200054082100CC0014
:101702005B085A060319862B872B8B2B20309631C8
:1017120053268A3121005B08031D902B912B022C4A
:10172200FA01FA0AFB01FB0A20308731C6278A3107
:101732001330F7009830F800203088310C208A31BD
:101742000830FA000230FB0020308731C6278A3188
:101752000630883153208A31200057082100B30017
:10176200200056082100B200200055082100B100D7
:10177200200054082100B0002030853196258A319E
:10178200FA01FA0A0330FB0020308731C6278A317A
:101792002530F7009830F800203088310C208A314B
:1017A2000830FA000430FB0020308731C6278A3126
:1017B2000730883153208A31200057082100B300B6
:1017C200200056082100B200200055082100B10077
:1017D200200054082100B0002030853196258A313E
:1017E2001230FA000430FB0020308731C6278A31DC
:1017F2003F30F7009830F800203088310C208A31D1
:101802003E2C5B03031D062C072C3E2CFA01FA0A20
:10181200FB01FB0A20308731C6278A310030F700EE
:101822009830F800203088310C208A310630FA00D6
:101832000230FB0020308731C6278A3121004F0851
:10184200B3004E08B2004D08B1004C08B000203081
:10185200803176208A311230FA000430FB002030C9
:101862008731C6278A314330F7009830F80020309C
:1018720088310C208A312000181402302100C8005F
:101882004530C700A930890B442CC70B442CC80B28
:10189200442C0032C72A80315B2820005B08803943
:1018A200E5005B35EC00DA1F572C582C592C6C14D0
:1018B2006C0803195D2C5E2C6E2C6C0A031D622CC5
:1018C200632C6B2C0030DB000030DA000030D900D2
:1018D2000030D800DA17DB01762C0030DB00003054
:1018E200DA000030D9000030D80057088039DC0017
:1018F2005C08E5065735ED00D61F802C812C822C22
:101902006D146D080319862C872C972C6D0A031D04
:101912008B2C8C2C942C0030D7000030D600003059
:10192200D5000030D400D617D7019F2C0030D70045
:101932000030D6000030D5000030D40057085604DD
:1019420055045404031DA62CA72CC02C0030DB0028
:101952000030DA000030D9000030D8008030DA04DC
:101962007F30DB046508DC005C08DB045B08D70021
:101972005A08D6005908D5005808D400F72D6C082B
:10198200031DC42CC52CCE2C0030D7000030D6004D
:101992000030D5000030D400F72D6C08DC00DD01EA
:1019A2005D08DF006D085C02DE00031CDF035E08D9
:1019B2007F3EE60000305F3DE7005B08E4005A0826
:1019C200E3005908E2005808E1000030DB00003073
:1019D200DA000030D9000030D8000030EB000030CF
:1019E200EA000030E9000030E800ED01362D6D0814
:1019F2000319FC2CFD2C172D0130E135E20DE30D0E
:101A0200E40D890BFE2C0130D835D90DDA0DDB0D32
:101A1200890B052DEB1F0E2D0F2D102D58140130A3
:101A2200E835E90DEA0DEB0D890B112D570864021B
:101A3200031D252D56086302031D252D550862023C
:101A4200031D252D54086102031C282D292D322D3A
:101A52006B175408E1025508E23B5608E33B57086E
:101A6200E43B0130DC005C08ED071A306D02031C18
:101A72003B2D3C2DF82C64086304620461040319B5
:101A8200432D442D5D2D68145D2D0130D835D90DBF
:101A9200DA0DDB0D890B472DEB1F502D512D522DE9
:101AA20058140130E835E90DEA0DEB0D890B532D81
:101AB200FF30E607FF30E73DDA1F602D612D462D2E
:101AC200ED01EB1F652D662D822DFF306805DC00D0
:101AD200FF306905DD00FF306A05DE007F306B05EF
:101AE200DF005F085E045D045C040319792D7A2D22
:101AF2007D2DED01ED0A822D581C802D812D822D28
:101B02007A2D6D080319862D872DAF2D0130D80748
:101B12000030D93D0030DA3D0030DB3D5B1C922DB8
:101B2200932DAF2D5808DC005908DD005A08DE005D
:101B32005B08DF000130E000DF37DE0CDD0CDC0C7F
:101B4200E00B9D2D5F08DB005E08DA005D08D9001E
:101B52005C08D8000130E6070030E73D6708803AAC
:101B6200DC0080305C02031DB82DFF306602031CCE
:101B7200BB2DBC2DC92DFF302000E6000030E70050
:101B82000030DB000030DA000030D9000030D8002D
:101B920020006708803ADC0080305C02031DD32DF0
:101BA200013066020318D62DD72DE32D2000E60161
:101BB200E7010030DB000030DA000030D9000030ED
:101BC200D800E50120006608EC006C1CE92DEA2D26
:101BD200EC2DDA17F02D7F30DC005C08DA056C366C
:101BE200DB006508DC005C08DB04B72C0800200081
:101BF20029088039B6002935B800A81F012E022E07
:101C0200032E381438080319072E082E182E380A06
:101C1200031D0C2E0D2E152E0030A9000030A80039
:101C22000030A7000030A600A817A901202E00301E
:101C3200A9000030A8000030A7000030A6002D083F
:101C42008039B700370836060319282E292E2A2E86
:101C520036172D35B700AC1F2F2E302E312E3714EC
:101C620037080319352E362E462E370A031D3A2E13
:101C72003B2E432E0030AD000030AC000030AB00F4
:101C82000030AA00AC17AD014E2E0030AD0000307E
:101C9200AC000030AB000030AA003808370203184D
:101CA200532E542E7A2E361F572E582E5C2E8030ED
:101CB200AE002E08B6063808B9003708B800390851
:101CC200B7002608B9002A08A6003908AA00270882
:101CD200B9002B08A7003908AB002808B9002C0866
:101CE200A8003908AC002908B9002D08A900390854
:101CF200AD00B9013708AE00AF012F08B1003808B6
:101D02002E02B000031CB1033108803AB2008030C9
:101D12003202031D8E2E1A303002031C912E922E97
:101D2200C42E20002908280427042604031D9A2E05
:101D32009C2E01309D2E0030B9000030A9000030E9
:101D4200A8000030A7000030A6003708B800CB2E4C
:101D5200391CAC2EAD2EB12E39360138B900B32E56
:101D62000310B90C261CB62EB72EB82EB9170130A7
:101D7200AE00A937A80CA70CA60CAE0BBA2E0130E8
:101D8200AE002E08B807200037083802031CCA2EFE
:101D9200CB2EA92E361BCE2ECF2E052F3808031D93
:101DA200D32ED42EDD2E0030A9000030A800003042
:101DB200A7000030A600FF2F2A08A6072B08A73D80
:101DC2002C08A83D2D08A93D291CE82EE92E912FAB
:101DD200391CEC2EED2EF12E39360138B900F32ED6
:101DE2000310B90C261CF62EF72EF82EB917013067
:101DF200AE00A937A80CA70CA60CAE0BFA2E013028
:101E0200AE002E08B807912F2908803AAE002D089F
:101E1200803A2E02031D172F2C082802031D172FAC
:101E22002B082702031D172F2A08260203181A2F30
:101E32001B2F532FFF30AE00FF30AF00FF30B0003A
:101E4200FF30B10026082A02B20027082B3BB3005C
:101E520028082C3BB40029082D3BB5003208AE07F8
:101E62003308AF3D3408B03D3508B13D3108A90013
:101E72003008A8002F08A7002E08A6008030AE0068
:101E82002E08B606B909B90A3908031D492F4A2F87
:101E92005B2F0130A6070030A73D0030A83D00307F
:101EA200A93D5B2F2A08A6022B08A73B2C08A83BBA
:101EB2002D08A93B2908280427042604031D622FA4
:101EC200632F8D2F3908031D672F682F8D2F003048
:101ED200A9000030A8000030A7000030A600FF2FA4
:101EE2000130A635A70DA80DA90D890B722FB91FB8
:101EF2007B2F7C2F7D2F2614391C802F812F842F3E
:101F02000314B90D862F0310B90D380803198A2F4F
:101F12008B2F8D2F0130B802A81F902F912F712F78
:101F2200B701B91F952F962FA42F39087F390319AE
:101F32009B2F9C2F9F2FB701B70AA42F261CA22FDD
:101F4200A32FA42F9C2F37080319A82FA92FD62F10
:101F52000130A6070030A73D0030A83D0030A93D62
:101F6200291CB42FB52FD62F2608AE002708AF00A4
:101F72002808B0002908B1000130B200B137B00C16
:101F8200AF0CAE0CB20BBF2F3108A9003008A8006D
:101F92002F08A7002E08A600380A0319D12FD22F26
:101FA200D62F0130AE002E08B807380A0319DA2FEF
:101FB200DB2FE02F3808031DDF2FE02FEE2F00303C
:101FC200A9000030A8000030A7000030A6003808A1
:101FD200031DEC2FED2FEE2FB601381CF12FF22F3F
:101FE200F42FA817F82F7F30AE002E08A805383638
:0E1FF200A900B61FFD2FFE2FFF2FA917080014
:102C8E00640080010131890B482E0034FE001200D1
:102C9E001E00FE0B4E2E0034FA00F701F70A7A08DA
:102CAE00973101279631080021009E171E088F3993
:102CBE0060389E0003309E0423000E158E152100F1
:102CCE000E158E1522009717033097040800F30097
:102CDE0024001614161C742E752E792E941D782E23
:102CEE00792E712E73357107910014187F2E802E58
:102CFE007C2E161B832E842E802E720891001418A3
:102D0E00892E8A2E862E161B8D2E8E2E8A2E161507
:102D1E000800F900F501F6017108F300F4017308DB
:102D2E00F7007408F800791C9D2E9E2EA22E7708AF
:102D3E00F5077808F63D0130F735F80D890BA32E0F
:102D4E000310F90C7908031DAD2EAE2E9A2E7608BF
:102D5E00F2007508F100080022000C1123000C117E
:102D6E0024000C1121000C1522008C1224008C1250
:102D7E0021008C1620001808CF391038980018142E
:102D8E00991719179916FC30990502303C009300DB
:102D9E002100901710142000901310102700911688
:102DAE008B150B1708002100190887396038990018
:102DBE000E108E1022008E0123000E108E10250094
:102DCE000E148E1421000E148E14240094179516D2
:102DDE001508F0390838950011303C00A10010306C
:102DEE00A00010303D00A0001130A10004302400DE
:102DFE0092000800F9007C107708F039F400790889
:102E0E009731282797317708F8000330F835FF3EC1
:102E1E00031D0D2F7835F039F400790897312827E6
:102E2E009731770303191C2F1D2F232F023077069E
:102E3E00031D222F232F272FC8300032890B242F5A
:102E4E000800F60000307C180130F5007508F40417
:102E5E00F1017408FB3921006804F20076089631FE
:102E6E006E269731F1017408210068040438F200CF
:102E7E00760896316E269731F1017408FB392100E0
:102E8E006804F200760896316E2697311030890B61
:102E9E004E2F0032080080302100A30627082000A4
:102EAE00A900210026082000A800210025082000E6
:102EBE00A700210024082000A600210023082000DE
:102ECE00AD00210022082000AC00210021082000C6
:102EDE00AB00210020082000AA008D31F825973183
:102EEE00200029082100A300200028082100A200AC
:102EFE00200027082100A100200026082100A000A4
:102F0E00080000302000A3000030A2000030A10015
:102F1E000030A000711C942F952F9E2F7508200055
:102F2E00A0077608A13D7708A23D7808A33D0130A1
:102F3E00F535F60DF70DF80D890B9F2F0130F43690
:102F4E00F30CF20CF10C890BA62F740873047204A7
:102F5E007104031DB32FB42F912F20002308F4000A
:102F6E002208F3002108F2002008F1000800F80002
:102F7E007408F039F6007408F5000330F535FF3E9D
:102F8E00031DC52F7535F039F700F1017608093E9E
:102F9E00F200780896316E269731F10176080D3ED3
:102FAE00F200780896316E269731F1017608093EC7
:102FBE00F200780896316E269731F1017708093EB6
:102FCE00F200780896316E269731F10177080D3EA2
:102FDE00F200780896316E269731F1017708093E96
:102FEE00F200780896316E2697310630890BFD2F48
:102FFE000800463452344534513420344C34553460
:10300E004534203453345534523420345234413400
:10301E00323420343A340034543445344E3453343C
:10302E0049344F344E3420345334553452342034D2
:10303E0052344334323420343A3400345434453428
:10304E004E34533449344F344E3420345334553483
:10305E005234203452344334333420343A3400342E
:10306E00583458342C345834583448347A34003464
:10307E0031342F343234003432342F34323400347D
:020000040001F9
:08000000FF3FFF3FFF3FFF3F00
:06000E00FC3FFF3F9F3F95
:00000001FF
